:020000040000fa
:080000000002040000000000f2
:020000040000fa
:100008009a0200009a0200009a0200009a02000078
:100018009a0200009a0200009a0200009a02000068
:100028009a0200009a0200009a020000f6020000fc
:100038009a0200009a0200009a0200009a02000048
:100048009a0200009a0200009a0200009a02000038
:100058009a0200009a0200009a0200009a02000028
:100068009a0200009a0200009a02000010030000a1
:100078009a0200009a0200009a0200009a02000008
:100088009a0200009a0200009a0200009a020000f8
:100098009a0200009a0200009a0200009a020000e8
:1000a8009a0200009a0200009a0200009a020000d8
:1000b8009a0200009a0200009a0200009a020000c8
:1000c8009a0200009a0200009a0200009a020000b8
:1000d8009a0200009a0200009a0200009a020000a8
:1000e8009a0200009a0200009a0200009a02000098
:1000f8009a0200009a0200009a0200009a02000088
:100108009a0200009a0200009a0200009a02000077
:100118009a0200009a0200009a0200009a02000067
:100128009a0200009a0200009a0200009a02000057
:100138009a0200009a0200009a0200009a02000047
:100148009a0200009a0200009a0200009a02000037
:100158009a0200009a0200009a0200009a02000027
:100168009a0200009a0200009a0200009a02000017
:100178009a0200009a0200009a0200009a02000007
:100188009a0200009a0200009a0200009a020000f7
:100198009a0200009a0200009a0200009a020000e7
:1001a8009a0200009a0200009a0200009a020000d7
:1001b8009a0200009a0200009a0200009a020000c7
:1001c8009a0200009a0200009a0200009a020000b7
:1001d8009a0200009a0200009a0200009a020000a7
:1001e8009a0200009a0200009a0200009a02000097
:0801f8009a0200009a020000c7
:020000040000fa
:100208009a0200009a0200009a0200009a02000076
:100218009a0200009a0200009a0200009a02000066
:100228009a0200009a0200009a020000f6020000fa
:100238009a0200009a0200009a0200009a02000046
:100248009a0200009a0200009a0200009a02000036
:100258009a0200009a0200009a0200009a02000026
:100268009a0200009a0200009a020000100300009f
:100278009a0200009a0200009a0200009a02000006
:100288009a0200009a0200009a0200009a020000f6
:100298009a0200009a0200009a0200009a020000e6
:1002a8009a0200009a0200009a0200009a020000d6
:1002b8009a0200009a0200009a0200009a020000c6
:1002c8009a0200009a0200009a0200009a020000b6
:1002d8009a0200009a0200009a0200009a020000a6
:1002e8009a0200009a0200009a0200009a02000096
:1002f8009a0200009a0200009a0200009a02000086
:100308009a0200009a0200009a0200009a02000075
:100318009a0200009a0200009a0200009a02000065
:100328009a0200009a0200009a0200009a02000055
:100338009a0200009a0200009a0200009a02000045
:100348009a0200009a0200009a0200009a02000035
:100358009a0200009a0200009a0200009a02000025
:100368009a0200009a0200009a0200009a02000015
:100378009a0200009a0200009a0200009a02000005
:100388009a0200009a0200009a0200009a020000f5
:100398009a0200009a0200009a0200009a020000e5
:1003a8009a0200009a0200009a0200009a020000d5
:1003b8009a0200009a0200009a0200009a020000c5
:1003c8009a0200009a0200009a0200009a020000b5
:1003d8009a0200009a0200009a0200009a020000a5
:1003e8009a0200009a0200009a0200009a02000095
:0803f8009a0200009a020000c5
:020000040000fa
:100400004f8020000e7f22000e01880000000000b7
:10041000000020000000e000020032000001200087
:10042000200288000c00070020402000010020006e
:1004300011000700000020000000e0000200320070
:1004400000000200000000009e0202000000000008
:100450000040da000000fe004440a9000000200037
:100460000000e0000300320000002000a00188002e
:100470004440a80000000600910188008000780038
:100480000000eb0015003700e280400032a0b4000d
:100490009101ba00e280400032a0b4009102ba009b
:1004a000e280400032a0b4000002eb00472bde00e7
:1004b000f507b200602ce10004003a000059eb009f
:1004c0008301e900fdff3e00040037006128e100e0
:1004d000010032000082eb00040007001101ba00a5
:1004e0000200e000e8ff3a00000006003159ba00bf
:1004f0008301e9000c0032002159ba008301e900b0
:10050000080032000400e00003003a00e2804000ee
:1005100032a0b400f5ff370011d9ba008301e90019
:10052000faff3a008100e800e180400032a0b40008
:0c053000000006000040da000000fe00a1
:020000040000fa
:10053c000000fa0092000700a30007009b000700d0
:10054c000002eb00044088000440800005002000fd
:10055c003600200007002000860f5200878f5a00bb
:10056c0019003e000460010003003700070037004b
:10057c000b0037000f003700cde2a900cdc2a80058
:10058c00cda2a800cd82a80014003700cde2a800af
:10059c00cdc2a900cda2a800cd82a8000f003700c3
:1005ac00cde2a800cdc2a800cda2a900cd82a800a2
:1005bc000a003700cde2a800cdc2a800cda2a80049
:1005cc00cd82a90005003700cde2a800cdc2a8005d
:1005dc00cda2a800cd82a80000000000daff3700f1
:1005ec00841f78003400f80004002000a401880067
:1005fc000000fa008460a900144080000402e800a6
:10060c00144088000080fa003400f9004f02780092
:10061c0000400600849fbe003400f8000400200057
:10062c00a40188000000fa008660a900551680001d
:10063c000402200004826200e00f520001003a0024
:10064c0005e1a80055168000040220000482620017
:10065c00e00f52002000320014408000e30f5200e3
:10066c001d003e0005e1a9000002eb0014408800cb
:10067c000002eb000408880004408000e00f5200e8
:10068c0003003a00140020000440880038003700b2
:10069c0004408000e10f520003003a0024002000c7
:1006ac00044088003200370004408000e20f520002
:1006bc0003003a0034002000044088002c0037006e
:1006cc0004408000e30f520028003a000002eb00c7
:1006dc0004408800260037005516800004022000d4
:1006ec0004826200e00f52002100320014408000ae
:1006fc00e30f52001e0036000002eb00144088008d
:10070c0005e1a9000002eb00040888000440800009
:10071c00e00f520003003a0034002000044088002f
:10072c001300370004408000e10f520003003a0030
:10073c000002eb00044088000d00370004408000ec
:10074c00e20f520003003a0014002000044088001d
:10075c000700370004408000e30f520004003a0009
:10076c002400200004408800010037000000000035
:10077c000080fa003400f9004f02be000040060071
:10078c000000fa00c9e2a900c9c2a900c9a2a900c7
:10079c00c982a900cde2a800cdc2a800cda2a800b4
:1007ac00cd82a8000080fa00000006000000fa00cc
:1007bc00c8a2a8008660a9009660a8006360a80083
:1007cc000080fa00000006000200fa00f40727007f
:1007dc00040f78001e02780014088800240880009a
:1007ec000440a0000450a000240888009460a800d5
:0807fc000080fa000000060075
:020000040000fa
:1008040000080000040000000000000000000000d8
:020000040000fa
:020000040001f9
:0457f800ad7b000085
:020000040000fa
:020000040001f9
:0457fc003f3f00002b
:00000001FF
